{
  "contractName": "GoBlockchain",
  "abi": [
    {
      "inputs": [
        {
          "internalType": "uint256",
          "name": "feePercent",
          "type": "uint256"
        }
      ],
      "stateMutability": "nonpayable",
      "type": "constructor"
    },
    {
      "anonymous": false,
      "inputs": [
        {
          "indexed": true,
          "internalType": "address",
          "name": "account",
          "type": "address"
        },
        {
          "indexed": true,
          "internalType": "address",
          "name": "operator",
          "type": "address"
        },
        {
          "indexed": false,
          "internalType": "bool",
          "name": "approved",
          "type": "bool"
        }
      ],
      "name": "ApprovalForAll",
      "type": "event"
    },
    {
      "anonymous": false,
      "inputs": [
        {
          "indexed": false,
          "internalType": "uint256",
          "name": "tokenId",
          "type": "uint256"
        },
        {
          "indexed": true,
          "internalType": "address",
          "name": "seller",
          "type": "address"
        },
        {
          "indexed": false,
          "internalType": "uint256",
          "name": "value",
          "type": "uint256"
        },
        {
          "indexed": false,
          "internalType": "uint256",
          "name": "amount",
          "type": "uint256"
        }
      ],
      "name": "CancelSellOffer",
      "type": "event"
    },
    {
      "anonymous": false,
      "inputs": [
        {
          "indexed": false,
          "internalType": "uint256",
          "name": "tokenId",
          "type": "uint256"
        },
        {
          "indexed": true,
          "internalType": "address",
          "name": "seller",
          "type": "address"
        },
        {
          "indexed": false,
          "internalType": "uint256",
          "name": "value",
          "type": "uint256"
        },
        {
          "indexed": false,
          "internalType": "uint256",
          "name": "amount",
          "type": "uint256"
        },
        {
          "indexed": true,
          "internalType": "address",
          "name": "buyer",
          "type": "address"
        },
        {
          "indexed": false,
          "internalType": "uint256",
          "name": "itemSoldId",
          "type": "uint256"
        }
      ],
      "name": "ItemSold",
      "type": "event"
    },
    {
      "anonymous": false,
      "inputs": [
        {
          "indexed": true,
          "internalType": "address",
          "name": "_from",
          "type": "address"
        },
        {
          "indexed": false,
          "internalType": "uint256",
          "name": "_amount",
          "type": "uint256"
        }
      ],
      "name": "MoneyReceived",
      "type": "event"
    },
    {
      "anonymous": false,
      "inputs": [
        {
          "indexed": true,
          "internalType": "address",
          "name": "_beneficiary",
          "type": "address"
        },
        {
          "indexed": false,
          "internalType": "uint256",
          "name": "_amount",
          "type": "uint256"
        }
      ],
      "name": "MoneySent",
      "type": "event"
    },
    {
      "anonymous": false,
      "inputs": [
        {
          "indexed": false,
          "internalType": "uint256",
          "name": "tokenId",
          "type": "uint256"
        },
        {
          "indexed": true,
          "internalType": "address",
          "name": "seller",
          "type": "address"
        },
        {
          "indexed": false,
          "internalType": "uint256",
          "name": "value",
          "type": "uint256"
        },
        {
          "indexed": false,
          "internalType": "uint256",
          "name": "amount",
          "type": "uint256"
        }
      ],
      "name": "NewSellOffer",
      "type": "event"
    },
    {
      "anonymous": false,
      "inputs": [
        {
          "indexed": true,
          "internalType": "address",
          "name": "previousOwner",
          "type": "address"
        },
        {
          "indexed": true,
          "internalType": "address",
          "name": "newOwner",
          "type": "address"
        }
      ],
      "name": "OwnershipTransferred",
      "type": "event"
    },
    {
      "anonymous": false,
      "inputs": [
        {
          "indexed": false,
          "internalType": "address",
          "name": "account",
          "type": "address"
        }
      ],
      "name": "Paused",
      "type": "event"
    },
    {
      "anonymous": false,
      "inputs": [
        {
          "indexed": true,
          "internalType": "address",
          "name": "operator",
          "type": "address"
        },
        {
          "indexed": true,
          "internalType": "address",
          "name": "from",
          "type": "address"
        },
        {
          "indexed": true,
          "internalType": "address",
          "name": "to",
          "type": "address"
        },
        {
          "indexed": false,
          "internalType": "uint256[]",
          "name": "ids",
          "type": "uint256[]"
        },
        {
          "indexed": false,
          "internalType": "uint256[]",
          "name": "values",
          "type": "uint256[]"
        }
      ],
      "name": "TransferBatch",
      "type": "event"
    },
    {
      "anonymous": false,
      "inputs": [
        {
          "indexed": true,
          "internalType": "address",
          "name": "operator",
          "type": "address"
        },
        {
          "indexed": true,
          "internalType": "address",
          "name": "from",
          "type": "address"
        },
        {
          "indexed": true,
          "internalType": "address",
          "name": "to",
          "type": "address"
        },
        {
          "indexed": false,
          "internalType": "uint256",
          "name": "id",
          "type": "uint256"
        },
        {
          "indexed": false,
          "internalType": "uint256",
          "name": "value",
          "type": "uint256"
        }
      ],
      "name": "TransferSingle",
      "type": "event"
    },
    {
      "anonymous": false,
      "inputs": [
        {
          "indexed": false,
          "internalType": "string",
          "name": "value",
          "type": "string"
        },
        {
          "indexed": true,
          "internalType": "uint256",
          "name": "id",
          "type": "uint256"
        }
      ],
      "name": "URI",
      "type": "event"
    },
    {
      "anonymous": false,
      "inputs": [
        {
          "indexed": false,
          "internalType": "address",
          "name": "account",
          "type": "address"
        }
      ],
      "name": "Unpaused",
      "type": "event"
    },
    {
      "inputs": [
        {
          "internalType": "uint256",
          "name": "",
          "type": "uint256"
        }
      ],
      "name": "activeSellOffers",
      "outputs": [
        {
          "internalType": "uint256",
          "name": "itemId",
          "type": "uint256"
        },
        {
          "internalType": "address",
          "name": "seller",
          "type": "address"
        },
        {
          "internalType": "uint256",
          "name": "price",
          "type": "uint256"
        },
        {
          "internalType": "uint256",
          "name": "amount",
          "type": "uint256"
        },
        {
          "internalType": "uint256",
          "name": "createTime",
          "type": "uint256"
        },
        {
          "internalType": "uint256",
          "name": "IDtoken",
          "type": "uint256"
        }
      ],
      "stateMutability": "view",
      "type": "function",
      "constant": true
    },
    {
      "inputs": [
        {
          "internalType": "address",
          "name": "account",
          "type": "address"
        },
        {
          "internalType": "uint256",
          "name": "id",
          "type": "uint256"
        }
      ],
      "name": "balanceOf",
      "outputs": [
        {
          "internalType": "uint256",
          "name": "",
          "type": "uint256"
        }
      ],
      "stateMutability": "view",
      "type": "function",
      "constant": true
    },
    {
      "inputs": [
        {
          "internalType": "address[]",
          "name": "accounts",
          "type": "address[]"
        },
        {
          "internalType": "uint256[]",
          "name": "ids",
          "type": "uint256[]"
        }
      ],
      "name": "balanceOfBatch",
      "outputs": [
        {
          "internalType": "uint256[]",
          "name": "",
          "type": "uint256[]"
        }
      ],
      "stateMutability": "view",
      "type": "function",
      "constant": true
    },
    {
      "inputs": [
        {
          "internalType": "uint256",
          "name": "id",
          "type": "uint256"
        }
      ],
      "name": "exists",
      "outputs": [
        {
          "internalType": "bool",
          "name": "",
          "type": "bool"
        }
      ],
      "stateMutability": "view",
      "type": "function",
      "constant": true
    },
    {
      "inputs": [
        {
          "internalType": "address",
          "name": "account",
          "type": "address"
        },
        {
          "internalType": "address",
          "name": "operator",
          "type": "address"
        }
      ],
      "name": "isApprovedForAll",
      "outputs": [
        {
          "internalType": "bool",
          "name": "",
          "type": "bool"
        }
      ],
      "stateMutability": "view",
      "type": "function",
      "constant": true
    },
    {
      "inputs": [],
      "name": "owner",
      "outputs": [
        {
          "internalType": "address",
          "name": "",
          "type": "address"
        }
      ],
      "stateMutability": "view",
      "type": "function",
      "constant": true
    },
    {
      "inputs": [],
      "name": "paused",
      "outputs": [
        {
          "internalType": "bool",
          "name": "",
          "type": "bool"
        }
      ],
      "stateMutability": "view",
      "type": "function",
      "constant": true
    },
    {
      "inputs": [],
      "name": "renounceOwnership",
      "outputs": [],
      "stateMutability": "nonpayable",
      "type": "function"
    },
    {
      "inputs": [
        {
          "internalType": "address",
          "name": "from",
          "type": "address"
        },
        {
          "internalType": "address",
          "name": "to",
          "type": "address"
        },
        {
          "internalType": "uint256[]",
          "name": "ids",
          "type": "uint256[]"
        },
        {
          "internalType": "uint256[]",
          "name": "amounts",
          "type": "uint256[]"
        },
        {
          "internalType": "bytes",
          "name": "data",
          "type": "bytes"
        }
      ],
      "name": "safeBatchTransferFrom",
      "outputs": [],
      "stateMutability": "nonpayable",
      "type": "function"
    },
    {
      "inputs": [
        {
          "internalType": "address",
          "name": "from",
          "type": "address"
        },
        {
          "internalType": "address",
          "name": "to",
          "type": "address"
        },
        {
          "internalType": "uint256",
          "name": "id",
          "type": "uint256"
        },
        {
          "internalType": "uint256",
          "name": "amount",
          "type": "uint256"
        },
        {
          "internalType": "bytes",
          "name": "data",
          "type": "bytes"
        }
      ],
      "name": "safeTransferFrom",
      "outputs": [],
      "stateMutability": "nonpayable",
      "type": "function"
    },
    {
      "inputs": [
        {
          "internalType": "address",
          "name": "operator",
          "type": "address"
        },
        {
          "internalType": "bool",
          "name": "approved",
          "type": "bool"
        }
      ],
      "name": "setApprovalForAll",
      "outputs": [],
      "stateMutability": "nonpayable",
      "type": "function"
    },
    {
      "inputs": [
        {
          "internalType": "uint256",
          "name": "",
          "type": "uint256"
        }
      ],
      "name": "soldOffers",
      "outputs": [
        {
          "internalType": "uint256",
          "name": "itemSoldId",
          "type": "uint256"
        },
        {
          "internalType": "address",
          "name": "seller",
          "type": "address"
        },
        {
          "internalType": "address",
          "name": "buyer",
          "type": "address"
        },
        {
          "internalType": "uint256",
          "name": "blockId",
          "type": "uint256"
        },
        {
          "internalType": "uint256",
          "name": "price",
          "type": "uint256"
        },
        {
          "internalType": "uint256",
          "name": "amount",
          "type": "uint256"
        },
        {
          "internalType": "uint256",
          "name": "createTime",
          "type": "uint256"
        },
        {
          "internalType": "uint256",
          "name": "IDtoken",
          "type": "uint256"
        }
      ],
      "stateMutability": "view",
      "type": "function",
      "constant": true
    },
    {
      "inputs": [
        {
          "internalType": "bytes4",
          "name": "interfaceId",
          "type": "bytes4"
        }
      ],
      "name": "supportsInterface",
      "outputs": [
        {
          "internalType": "bool",
          "name": "",
          "type": "bool"
        }
      ],
      "stateMutability": "view",
      "type": "function",
      "constant": true
    },
    {
      "inputs": [
        {
          "internalType": "uint256",
          "name": "id",
          "type": "uint256"
        }
      ],
      "name": "totalSupply",
      "outputs": [
        {
          "internalType": "uint256",
          "name": "",
          "type": "uint256"
        }
      ],
      "stateMutability": "view",
      "type": "function",
      "constant": true
    },
    {
      "inputs": [
        {
          "internalType": "address",
          "name": "newOwner",
          "type": "address"
        }
      ],
      "name": "transferOwnership",
      "outputs": [],
      "stateMutability": "nonpayable",
      "type": "function"
    },
    {
      "inputs": [
        {
          "internalType": "uint256",
          "name": "",
          "type": "uint256"
        }
      ],
      "name": "uri",
      "outputs": [
        {
          "internalType": "string",
          "name": "",
          "type": "string"
        }
      ],
      "stateMutability": "view",
      "type": "function",
      "constant": true
    },
    {
      "inputs": [],
      "name": "balance",
      "outputs": [
        {
          "internalType": "uint256",
          "name": "",
          "type": "uint256"
        }
      ],
      "stateMutability": "view",
      "type": "function",
      "constant": true
    },
    {
      "inputs": [],
      "name": "withdrawFunds",
      "outputs": [],
      "stateMutability": "nonpayable",
      "type": "function"
    },
    {
      "inputs": [],
      "name": "pause",
      "outputs": [],
      "stateMutability": "nonpayable",
      "type": "function"
    },
    {
      "inputs": [],
      "name": "unpause",
      "outputs": [],
      "stateMutability": "nonpayable",
      "type": "function"
    },
    {
      "inputs": [
        {
          "internalType": "address",
          "name": "account",
          "type": "address"
        },
        {
          "internalType": "uint256",
          "name": "amount",
          "type": "uint256"
        },
        {
          "internalType": "string",
          "name": "uri",
          "type": "string"
        }
      ],
      "name": "mint",
      "outputs": [],
      "stateMutability": "nonpayable",
      "type": "function"
    },
    {
      "inputs": [
        {
          "internalType": "address",
          "name": "to",
          "type": "address"
        },
        {
          "internalType": "uint256[]",
          "name": "ids",
          "type": "uint256[]"
        },
        {
          "internalType": "uint256[]",
          "name": "amounts",
          "type": "uint256[]"
        }
      ],
      "name": "mintBatch",
      "outputs": [],
      "stateMutability": "nonpayable",
      "type": "function"
    },
    {
      "inputs": [
        {
          "internalType": "uint256",
          "name": "tokenId",
          "type": "uint256"
        },
        {
          "internalType": "uint256",
          "name": "price",
          "type": "uint256"
        },
        {
          "internalType": "uint256",
          "name": "amount",
          "type": "uint256"
        }
      ],
      "name": "makeSellOffer",
      "outputs": [],
      "stateMutability": "nonpayable",
      "type": "function"
    },
    {
      "inputs": [
        {
          "internalType": "uint256",
          "name": "item",
          "type": "uint256"
        }
      ],
      "name": "buyToken",
      "outputs": [
        {
          "components": [
            {
              "internalType": "uint256",
              "name": "itemId",
              "type": "uint256"
            },
            {
              "internalType": "address",
              "name": "seller",
              "type": "address"
            },
            {
              "internalType": "uint256",
              "name": "price",
              "type": "uint256"
            },
            {
              "internalType": "uint256",
              "name": "amount",
              "type": "uint256"
            },
            {
              "internalType": "uint256",
              "name": "createTime",
              "type": "uint256"
            },
            {
              "internalType": "uint256",
              "name": "IDtoken",
              "type": "uint256"
            }
          ],
          "internalType": "struct GoBlockchain.SellOffer",
          "name": "",
          "type": "tuple"
        }
      ],
      "stateMutability": "payable",
      "type": "function",
      "payable": true
    },
    {
      "inputs": [],
      "name": "fetchMarketItems",
      "outputs": [
        {
          "components": [
            {
              "internalType": "uint256",
              "name": "itemId",
              "type": "uint256"
            },
            {
              "internalType": "address",
              "name": "seller",
              "type": "address"
            },
            {
              "internalType": "uint256",
              "name": "price",
              "type": "uint256"
            },
            {
              "internalType": "uint256",
              "name": "amount",
              "type": "uint256"
            },
            {
              "internalType": "uint256",
              "name": "createTime",
              "type": "uint256"
            },
            {
              "internalType": "uint256",
              "name": "IDtoken",
              "type": "uint256"
            }
          ],
          "internalType": "struct GoBlockchain.SellOffer[]",
          "name": "",
          "type": "tuple[]"
        }
      ],
      "stateMutability": "view",
      "type": "function",
      "constant": true
    },
    {
      "inputs": [
        {
          "internalType": "uint256",
          "name": "tokenId",
          "type": "uint256"
        }
      ],
      "name": "cancelSellOffer",
      "outputs": [],
      "stateMutability": "nonpayable",
      "type": "function"
    },
    {
      "inputs": [
        {
          "internalType": "uint256",
          "name": "tokenId",
          "type": "uint256"
        }
      ],
      "name": "token_uri",
      "outputs": [
        {
          "internalType": "string",
          "name": "",
          "type": "string"
        }
      ],
      "stateMutability": "view",
      "type": "function",
      "constant": true
    },
    {
      "inputs": [
        {
          "internalType": "address",
          "name": "",
          "type": "address"
        },
        {
          "internalType": "address",
          "name": "",
          "type": "address"
        },
        {
          "internalType": "uint256",
          "name": "",
          "type": "uint256"
        },
        {
          "internalType": "uint256",
          "name": "",
          "type": "uint256"
        },
        {
          "internalType": "bytes",
          "name": "",
          "type": "bytes"
        }
      ],
      "name": "onERC1155Received",
      "outputs": [
        {
          "internalType": "bytes4",
          "name": "",
          "type": "bytes4"
        }
      ],
      "stateMutability": "nonpayable",
      "type": "function"
    },
    {
      "inputs": [
        {
          "internalType": "address",
          "name": "",
          "type": "address"
        },
        {
          "internalType": "address",
          "name": "",
          "type": "address"
        },
        {
          "internalType": "uint256[]",
          "name": "",
          "type": "uint256[]"
        },
        {
          "internalType": "uint256[]",
          "name": "",
          "type": "uint256[]"
        },
        {
          "internalType": "bytes",
          "name": "",
          "type": "bytes"
        }
      ],
      "name": "onERC1155BatchReceived",
      "outputs": [
        {
          "internalType": "bytes4",
          "name": "",
          "type": "bytes4"
        }
      ],
      "stateMutability": "nonpayable",
      "type": "function"
    }
  ],
  "bytecode": "0x60806040523480156200001157600080fd5b506040516200337738038062003377833981016040819052620000349162000186565b6040805160208101909152600081526200004e8162000075565b506200005a336200008e565b6003805460ff60a01b191690556001600455600955620001dc565b80516200008a906002906020840190620000e0565b5050565b600380546001600160a01b038381166001600160a01b0319831681179093556040519116919082907f8be0079c531659141344cd1fd0a4f28419497f9722a3daafe3b4186f6b6457e090600090a35050565b828054620000ee906200019f565b90600052602060002090601f0160209004810192826200011257600085556200015d565b82601f106200012d57805160ff19168380011785556200015d565b828001600101855582156200015d579182015b828111156200015d57825182559160200191906001019062000140565b506200016b9291506200016f565b5090565b5b808211156200016b576000815560010162000170565b60006020828403121562000198578081fd5b5051919050565b600281046001821680620001b457607f821691505b60208210811415620001d657634e487b7160e01b600052602260045260246000fd5b50919050565b61318b80620001ec6000396000f3fe6080604052600436106101c15760003560e01c806373ae783e116100f7578063bc197c8111610095578063e985e9c511610064578063e985e9c514610638578063f23a6e6114610681578063f242432a146106ad578063f2fde38b146106cd576101c1565b8063bc197c8114610586578063bd85b039146105cb578063d3fc9864146105f8578063d81d0a1514610618576101c1565b806398d91a26116100d157806398d91a2614610513578063a22cb46514610533578063a4ae3ed914610553578063b69ef8a814610573576101c1565b806373ae783e146104245780638456cb59146104d65780638da5cb5b146104eb576101c1565b80632eb2c2d6116101645780634e1273f41161013e5780634e1273f4146103935780634f558e79146103c05780635c975abb146103ef578063715018a61461040f576101c1565b80632eb2c2d61461033e578063316d51d51461035e5780633f4ba83a1461037e576101c1565b80630e89341c116101a05780630e89341c146102b85780630f08efe0146102e557806324600fc3146103075780632d296bf11461031e576101c1565b8062fdd58e146101c657806301ffc9a7146101f957806303c5564914610229575b600080fd5b3480156101d257600080fd5b506101e66101e1366004612921565b6106ed565b6040519081526020015b60405180910390f35b34801561020557600080fd5b50610219610214366004612a71565b610787565b60405190151581526020016101f0565b34801561023557600080fd5b50610283610244366004612aa9565b600a6020526000908152604090208054600182015460028301546003840154600485015460059095015493946001600160a01b03909316939192909186565b604080519687526001600160a01b039095166020870152938501929092526060840152608083015260a082015260c0016101f0565b3480156102c457600080fd5b506102d86102d3366004612aa9565b6107db565b6040516101f09190612d3e565b3480156102f157600080fd5b506102fa61086f565b6040516101f09190612caf565b34801561031357600080fd5b5061031c6109e9565b005b61033161032c366004612aa9565b610a6f565b6040516101f09190612f47565b34801561034a57600080fd5b5061031c61035936600461276d565b610ebc565b34801561036a57600080fd5b5061031c610379366004612ad9565b610f53565b34801561038a57600080fd5b5061031c611326565b34801561039f57600080fd5b506103b36103ae3660046129a8565b61135a565b6040516101f09190612cfd565b3480156103cc57600080fd5b506102196103db366004612aa9565b600090815260056020526040902054151590565b3480156103fb57600080fd5b50610219600354600160a01b900460ff1690565b34801561041b57600080fd5b5061031c6114bc565b34801561043057600080fd5b5061048f61043f366004612aa9565b600b602052600090815260409020805460018201546002830154600384015460048501546005860154600687015460079097015495966001600160a01b0395861696949095169492939192909188565b604080519889526001600160a01b0397881660208a015295909616948701949094526060860192909252608085015260a084015260c083015260e0820152610100016101f0565b3480156104e257600080fd5b5061031c6114f0565b3480156104f757600080fd5b506003546040516001600160a01b0390911681526020016101f0565b34801561051f57600080fd5b5061031c61052e366004612aa9565b611522565b34801561053f57600080fd5b5061031c61054e3660046128e7565b611733565b34801561055f57600080fd5b506102d861056e366004612aa9565b611742565b34801561057f57600080fd5b50476101e6565b34801561059257600080fd5b506105b26105a136600461276d565b63bc197c8160e01b95945050505050565b6040516001600160e01b031990911681526020016101f0565b3480156105d757600080fd5b506101e66105e6366004612aa9565b60009081526005602052604090205490565b34801561060457600080fd5b5061031c61061336600461294a565b61175f565b34801561062457600080fd5b5061031c610633366004612876565b611820565b34801561064457600080fd5b5061021961065336600461273b565b6001600160a01b03918216600090815260016020908152604080832093909416825291909152205460ff1690565b34801561068d57600080fd5b506105b261069c366004612813565b63f23a6e6160e01b95945050505050565b3480156106b957600080fd5b5061031c6106c8366004612813565b61189a565b3480156106d957600080fd5b5061031c6106e8366004612721565b611921565b60006001600160a01b03831661075e5760405162461bcd60e51b815260206004820152602b60248201527f455243313135353a2062616c616e636520717565727920666f7220746865207a60448201526a65726f206164647265737360a81b60648201526084015b60405180910390fd5b506000818152602081815260408083206001600160a01b03861684529091529020545b92915050565b60006001600160e01b03198216636cdb3d1360e11b14806107b857506001600160e01b031982166303a24d0760e21b145b806107d357506301ffc9a760e01b6001600160e01b03198316145b90505b919050565b6060600280546107ea90612fe7565b80601f016020809104026020016040519081016040528092919081815260200182805461081690612fe7565b80156108635780601f1061083857610100808354040283529160200191610863565b820191906000526020600020905b81548152906001019060200180831161084657829003601f168201915b50505050509050919050565b6060600061087c60085490565b9050600061088960075490565b6008546108969190612fd0565b90506000808267ffffffffffffffff8111156108c257634e487b7160e01b600052604160045260246000fd5b6040519080825280602002602001820160405280156108fb57816020015b6108e861253c565b8152602001906001900390816108e05790505b50905060005b848110156109df576000818152600a60205260409020600101546001600160a01b0316156109cd576000818152600a602090815260408083205480845292819020815160c0810183528154815260018201546001600160a01b0316938101939093526002810154918301919091526003810154606083015260048101546080830152600581015460a083015284519091908590879081106109b257634e487b7160e01b600052603260045260246000fd5b60209081029190910101526109c8600186612f79565b945050505b806109d78161304f565b915050610901565b5093505050505b90565b6003546001600160a01b03163314610a135760405162461bcd60e51b815260040161075590612e52565b60026004541415610a365760405162461bcd60e51b815260040161075590612f10565b600260045560405133904780156108fc02916000818181858888f19350505050158015610a67573d6000803e3d6000fd5b506001600455565b610a7761253c565b610a8a600354600160a01b900460ff1690565b15610aa75760405162461bcd60e51b815260040161075590612d99565b60026004541415610aca5760405162461bcd60e51b815260040161075590612f10565b600260048181556000848152600a6020908152604091829020825160c0810184528154815260018201546001600160a01b031692810192909252938401549181018290526003840154606082015291830154608083015260059092015460a082015290341015610b8e5760405162461bcd60e51b815260206004820152602960248201527f596f752063616e27742073656e64206c657373207468616e20746865206f666660448201526865722070726963652160b81b6064820152608401610755565b60405134815233907f27b15ed4cf832749ed39f33a64e4707ed60a761485e41ffec7343ecaddc0c02a9060200160405180910390a2600954600090610bd4606434612f91565b610bde9190612fb1565b90506000610bec8234612fd0565b60a08401516060850151604051637921219560e11b8152929350309263f242432a92610c2092859233929190600401612c6c565b600060405180830381600087803b158015610c3a57600080fd5b505af1158015610c4e573d6000803e3d6000fd5b5050505082602001516001600160a01b03166108fc829081150290604051600060405180830381858888f19350505050158015610c8f573d6000803e3d6000fd5b5082602001516001600160a01b03167f7f51d406915971d4ac1c91af96be5187ea6ab64753785aad519a533def80a41e82604051610ccf91815260200190565b60405180910390a26000610ce260075490565b9050610cf2600780546001019055565b60405180610100016040528082815260200185602001516001600160a01b03168152602001336001600160a01b0316815260200143815260200185604001518152602001856060015181526020014281526020018560a00151815250600b60008381526020019081526020016000206000820151816000015560208201518160010160006101000a8154816001600160a01b0302191690836001600160a01b0316021790555060408201518160020160006101000a8154816001600160a01b0302191690836001600160a01b03160217905550606082015181600301556080820151816004015560a0820151816005015560c0820151816006015560e08201518160070155905050336001600160a01b031684602001516001600160a01b03167f2ae72c6fb710481e9d390c1208e9f8a68db2ba8b39a2ee2341536edd8b26942e8660a001518760400151886060015186604051610e69949392919093845260208401929092526040830152606082015260800190565b60405180910390a35050506000838152600a602052604081208181556001810180546001600160a01b03191690556002810182905560038101829055600481018290556005015590506001600455919050565b6001600160a01b038516331480610ed85750610ed88533610653565b610f3f5760405162461bcd60e51b815260206004820152603260248201527f455243313135353a207472616e736665722063616c6c6572206973206e6f74206044820152711bdddb995c881b9bdc88185c1c1c9bdd995960721b6064820152608401610755565b610f4c85858585856119bc565b5050505050565b610f66600354600160a01b900460ff1690565b15610f835760405162461bcd60e51b815260040161075590612d99565b60026004541415610fa65760405162461bcd60e51b815260040161075590612f10565b60026004908155604051627eeac760e11b81523391810191909152602481018490528390309062fdd58e9060440160206040518083038186803b158015610fec57600080fd5b505afa158015611000573d6000803e3d6000fd5b505050506040513d601f19601f820116820180604052508101906110249190612ac1565b6110705760405162461bcd60e51b815260206004820152601860248201527f596f7520646f6e2774206861766520616e7920746f6b656e00000000000000006044820152606401610755565b600083116110c05760405162461bcd60e51b815260206004820152601c60248201527f5072696365206d757374206265206174206c65617374203120776569000000006044820152606401610755565b600082116111105760405162461bcd60e51b815260206004820152601760248201527f596f752063616e27742073656c6c203020746f6b656e730000000000000000006044820152606401610755565b604051627eeac760e11b8152336004820152602481018590528290309062fdd58e9060440160206040518083038186803b15801561114d57600080fd5b505afa158015611161573d6000803e3d6000fd5b505050506040513d601f19601f820116820180604052508101906111859190612ac1565b10156111dd5760405162461bcd60e51b815260206004820152602160248201527f596f7520646f6e277420686176652073756666696369656e742062616c616e636044820152606560f81b6064820152608401610755565b60006111e860085490565b90506111f8600880546001019055565b6040805160c08101825282815233602080830182815283850189815260608501898152426080870190815260a087018d815260008a8152600a909652948890209651875592516001870180546001600160a01b0319166001600160a01b03909216919091179055905160028601555160038501555160048085019190915590516005909301929092559151637921219560e11b8152309263f242432a926112a59285918b918a9101612c6c565b600060405180830381600087803b1580156112bf57600080fd5b505af11580156112d3573d6000803e3d6000fd5b505060408051888152602081018890529081018690523392507ffaa50553f3a7bb446a6bbb9034343718b9f0bd90e5d7f6c194a3e26be1522954915060600160405180910390a250506001600455505050565b6003546001600160a01b031633146113505760405162461bcd60e51b815260040161075590612e52565b611358611b82565b565b606081518351146113bf5760405162461bcd60e51b815260206004820152602960248201527f455243313135353a206163636f756e747320616e6420696473206c656e677468604482015268040dad2e6dac2e8c6d60bb1b6064820152608401610755565b6000835167ffffffffffffffff8111156113e957634e487b7160e01b600052604160045260246000fd5b604051908082528060200260200182016040528015611412578160200160208202803683370190505b50905060005b84518110156114b45761147985828151811061144457634e487b7160e01b600052603260045260246000fd5b602002602001015185838151811061146c57634e487b7160e01b600052603260045260246000fd5b60200260200101516106ed565b82828151811061149957634e487b7160e01b600052603260045260246000fd5b60209081029190910101526114ad8161304f565b9050611418565b509392505050565b6003546001600160a01b031633146114e65760405162461bcd60e51b815260040161075590612e52565b6113586000611c25565b6003546001600160a01b0316331461151a5760405162461bcd60e51b815260040161075590612e52565b611358611c77565b611535600354600160a01b900460ff1690565b156115525760405162461bcd60e51b815260040161075590612d99565b600260045414156115755760405162461bcd60e51b815260040161075590612f10565b600260048181556000838152600a6020908152604091829020825160c0810184528154815260018201546001600160a01b03169281018390529481015492850192909252600382015460608501529181015460808401526005015460a083015233146116235760405162461bcd60e51b815260206004820152601b60248201527f596f75206172656e27742074686520746f6b656e2073656c6c657200000000006044820152606401610755565b60a08101516060820151604051637921219560e11b8152309263f242432a9261165492859233929091600401612c6c565b600060405180830381600087803b15801561166e57600080fd5b505af1158015611682573d6000803e3d6000fd5b5050505080602001516001600160a01b03167fbcc7320a0634e828c200663522cf73180a4b5648b0c2cf842fbf981d71496da98260a00151836040015184606001516040516116e4939291909283526020830191909152604082015260600190565b60405180910390a2506000908152600a60205260408120818155600180820180546001600160a01b03191690556002820183905560038201839055600480830184905560059092019290925555565b61173e338383611ce2565b5050565b6000818152600c602052604090208054606091906107ea90612fe7565b6003546001600160a01b031633146117895760405162461bcd60e51b815260040161075590612e52565b61179c600354600160a01b900460ff1690565b156117b95760405162461bcd60e51b815260040161075590612d99565b60006117c460065490565b90506117d4600680546001019055565b6117ef84828560405180602001604052806000815250611dc3565b6000818152600c60209081526040909120835161180e9285019061257b565b5061181a306001611733565b50505050565b6003546001600160a01b0316331461184a5760405162461bcd60e51b815260040161075590612e52565b61185d600354600160a01b900460ff1690565b1561187a5760405162461bcd60e51b815260040161075590612d99565b61189583838360405180602001604052806000815250611e99565b505050565b6001600160a01b0385163314806118b657506118b68533610653565b6119145760405162461bcd60e51b815260206004820152602960248201527f455243313135353a2063616c6c6572206973206e6f74206f776e6572206e6f7260448201526808185c1c1c9bdd995960ba1b6064820152608401610755565b610f4c858585858561200f565b6003546001600160a01b0316331461194b5760405162461bcd60e51b815260040161075590612e52565b6001600160a01b0381166119b05760405162461bcd60e51b815260206004820152602660248201527f4f776e61626c653a206e6577206f776e657220697320746865207a65726f206160448201526564647265737360d01b6064820152608401610755565b6119b981611c25565b50565b81518351146119dd5760405162461bcd60e51b815260040161075590612e87565b6001600160a01b038416611a035760405162461bcd60e51b815260040161075590612dc3565b33611a1281878787878761212c565b60005b8451811015611b14576000858281518110611a4057634e487b7160e01b600052603260045260246000fd5b602002602001015190506000858381518110611a6c57634e487b7160e01b600052603260045260246000fd5b602090810291909101810151600084815280835260408082206001600160a01b038e168352909352919091205490915081811015611abc5760405162461bcd60e51b815260040161075590612e08565b6000838152602081815260408083206001600160a01b038e8116855292528083208585039055908b16825281208054849290611af9908490612f79565b9250508190555050505080611b0d9061304f565b9050611a15565b50846001600160a01b0316866001600160a01b0316826001600160a01b03167f4a39dc06d4c0dbc64b70af90fd698a233a518aa5d07e595d983b8c0526c8f7fb8787604051611b64929190612d10565b60405180910390a4611b7a81878787878761216a565b505050505050565b611b95600354600160a01b900460ff1690565b611bd85760405162461bcd60e51b815260206004820152601460248201527314185d5cd8589b194e881b9bdd081c185d5cd95960621b6044820152606401610755565b6003805460ff60a01b191690557f5db9ee0a495bf2e6ff9c91a7834c1ba4fdd244a5e8aa4e537bd38aeae4b073aa335b6040516001600160a01b03909116815260200160405180910390a1565b600380546001600160a01b038381166001600160a01b0319831681179093556040519116919082907f8be0079c531659141344cd1fd0a4f28419497f9722a3daafe3b4186f6b6457e090600090a35050565b611c8a600354600160a01b900460ff1690565b15611ca75760405162461bcd60e51b815260040161075590612d99565b6003805460ff60a01b1916600160a01b1790557f62e78cea01bee320cd4e420270b5ea74000d11b0c9f74754ebdbfc544b05a258611c083390565b816001600160a01b0316836001600160a01b03161415611d565760405162461bcd60e51b815260206004820152602960248201527f455243313135353a2073657474696e6720617070726f76616c20737461747573604482015268103337b91039b2b63360b91b6064820152608401610755565b6001600160a01b03838116600081815260016020908152604080832094871680845294825291829020805460ff191686151590811790915591519182527f17307eab39ab6107e8899845ad3d59bd9653f200f220920489ca2b5937696c31910160405180910390a3505050565b6001600160a01b038416611de95760405162461bcd60e51b815260040161075590612ecf565b33611e0981600087611dfa886122d5565b611e03886122d5565b8761212c565b6000848152602081815260408083206001600160a01b038916845290915281208054859290611e39908490612f79565b909155505060408051858152602081018590526001600160a01b0380881692600092918516917fc3d58168c5ae7397731d063d5bbf3d657854427343f4c083240f7aacaa2d0f62910160405180910390a4610f4c8160008787878761232e565b6001600160a01b038416611ebf5760405162461bcd60e51b815260040161075590612ecf565b8151835114611ee05760405162461bcd60e51b815260040161075590612e87565b33611ef08160008787878761212c565b60005b8451811015611fa757838181518110611f1c57634e487b7160e01b600052603260045260246000fd5b6020026020010151600080878481518110611f4757634e487b7160e01b600052603260045260246000fd5b602002602001015181526020019081526020016000206000886001600160a01b03166001600160a01b031681526020019081526020016000206000828254611f8f9190612f79565b90915550819050611f9f8161304f565b915050611ef3565b50846001600160a01b031660006001600160a01b0316826001600160a01b03167f4a39dc06d4c0dbc64b70af90fd698a233a518aa5d07e595d983b8c0526c8f7fb8787604051611ff8929190612d10565b60405180910390a4610f4c8160008787878761216a565b6001600160a01b0384166120355760405162461bcd60e51b815260040161075590612dc3565b33612045818787611dfa886122d5565b6000848152602081815260408083206001600160a01b038a168452909152902054838110156120865760405162461bcd60e51b815260040161075590612e08565b6000858152602081815260408083206001600160a01b038b81168552925280832087850390559088168252812080548692906120c3908490612f79565b909155505060408051868152602081018690526001600160a01b03808916928a821692918616917fc3d58168c5ae7397731d063d5bbf3d657854427343f4c083240f7aacaa2d0f62910160405180910390a461212382888888888861232e565b50505050505050565b61213f600354600160a01b900460ff1690565b1561215c5760405162461bcd60e51b815260040161075590612d99565b611b7a8686868686866123f8565b6001600160a01b0384163b15611b7a5760405163bc197c8160e01b81526001600160a01b0385169063bc197c81906121ae9089908990889088908890600401612bc9565b602060405180830381600087803b1580156121c857600080fd5b505af19250505080156121f8575060408051601f3d908101601f191682019092526121f591810190612a8d565b60015b6122a557612204613096565b806308c379a0141561223e57506122196130ad565b806122245750612240565b8060405162461bcd60e51b81526004016107559190612d3e565b505b60405162461bcd60e51b815260206004820152603460248201527f455243313135353a207472616e7366657220746f206e6f6e20455243313135356044820152732932b1b2b4bb32b91034b6b83632b6b2b73a32b960611b6064820152608401610755565b6001600160e01b0319811663bc197c8160e01b146121235760405162461bcd60e51b815260040161075590612d51565b6040805160018082528183019092526060916000919060208083019080368337019050509050828160008151811061231d57634e487b7160e01b600052603260045260246000fd5b602090810291909101015292915050565b6001600160a01b0384163b15611b7a5760405163f23a6e6160e01b81526001600160a01b0385169063f23a6e61906123729089908990889088908890600401612c27565b602060405180830381600087803b15801561238c57600080fd5b505af19250505080156123bc575060408051601f3d908101601f191682019092526123b991810190612a8d565b60015b6123c857612204613096565b6001600160e01b0319811663f23a6e6160e01b146121235760405162461bcd60e51b815260040161075590612d51565b6001600160a01b03851661249b5760005b83518110156124995782818151811061243257634e487b7160e01b600052603260045260246000fd5b60200260200101516005600086848151811061245e57634e487b7160e01b600052603260045260246000fd5b6020026020010151815260200190815260200160002060008282546124839190612f79565b9091555061249290508161304f565b9050612409565b505b6001600160a01b038416611b7a5760005b8351811015612123578281815181106124d557634e487b7160e01b600052603260045260246000fd5b60200260200101516005600086848151811061250157634e487b7160e01b600052603260045260246000fd5b6020026020010151815260200190815260200160002060008282546125269190612fd0565b9091555061253590508161304f565b90506124ac565b6040518060c001604052806000815260200160006001600160a01b03168152602001600081526020016000815260200160008152602001600081525090565b82805461258790612fe7565b90600052602060002090601f0160209004810192826125a957600085556125ef565b82601f106125c257805160ff19168380011785556125ef565b828001600101855582156125ef579182015b828111156125ef5782518255916020019190600101906125d4565b506125fb9291506125ff565b5090565b5b808211156125fb5760008155600101612600565b600067ffffffffffffffff83111561262e5761262e613080565b604051612645601f8501601f191660200182613022565b80915083815284848401111561265a57600080fd5b83836020830137600060208583010152509392505050565b80356001600160a01b03811681146107d657600080fd5b600082601f830112612699578081fd5b813560206126a682612f55565b6040516126b38282613022565b8381528281019150858301838502870184018810156126d0578586fd5b855b858110156126ee578135845292840192908401906001016126d2565b5090979650505050505050565b600082601f83011261270b578081fd5b61271a83833560208501612614565b9392505050565b600060208284031215612732578081fd5b61271a82612672565b6000806040838503121561274d578081fd5b61275683612672565b915061276460208401612672565b90509250929050565b600080600080600060a08688031215612784578081fd5b61278d86612672565b945061279b60208701612672565b9350604086013567ffffffffffffffff808211156127b7578283fd5b6127c389838a01612689565b945060608801359150808211156127d8578283fd5b6127e489838a01612689565b935060808801359150808211156127f9578283fd5b50612806888289016126fb565b9150509295509295909350565b600080600080600060a0868803121561282a578081fd5b61283386612672565b945061284160208701612672565b93506040860135925060608601359150608086013567ffffffffffffffff81111561286a578182fd5b612806888289016126fb565b60008060006060848603121561288a578283fd5b61289384612672565b9250602084013567ffffffffffffffff808211156128af578384fd5b6128bb87838801612689565b935060408601359150808211156128d0578283fd5b506128dd86828701612689565b9150509250925092565b600080604083850312156128f9578182fd5b61290283612672565b915060208301358015158114612916578182fd5b809150509250929050565b60008060408385031215612933578182fd5b61293c83612672565b946020939093013593505050565b60008060006060848603121561295e578081fd5b61296784612672565b925060208401359150604084013567ffffffffffffffff811115612989578182fd5b8401601f81018613612999578182fd5b6128dd86823560208401612614565b600080604083850312156129ba578182fd5b823567ffffffffffffffff808211156129d1578384fd5b818501915085601f8301126129e4578384fd5b813560206129f182612f55565b6040516129fe8282613022565b8381528281019150858301838502870184018b1015612a1b578889fd5b8896505b84871015612a4457612a3081612672565b835260019690960195918301918301612a1f565b5096505086013592505080821115612a5a578283fd5b50612a6785828601612689565b9150509250929050565b600060208284031215612a82578081fd5b813561271a8161313f565b600060208284031215612a9e578081fd5b815161271a8161313f565b600060208284031215612aba578081fd5b5035919050565b600060208284031215612ad2578081fd5b5051919050565b600080600060608486031215612aed578081fd5b505081359360208301359350604090920135919050565b6000815180845260208085019450808401835b83811015612b3357815187529582019590820190600101612b17565b509495945050505050565b60008151808452815b81811015612b6357602081850181015186830182015201612b47565b81811115612b745782602083870101525b50601f01601f19169290920160200192915050565b805182526020808201516001600160a01b03169083015260408082015190830152606080820151908301526080808201519083015260a090810151910152565b6001600160a01b0386811682528516602082015260a060408201819052600090612bf590830186612b04565b8281036060840152612c078186612b04565b90508281036080840152612c1b8185612b3e565b98975050505050505050565b6001600160a01b03868116825285166020820152604081018490526060810183905260a060808201819052600090612c6190830184612b3e565b979650505050505050565b6001600160a01b0394851681529290931660208301526040820152606081019190915260a06080820181905260029082015261060f60f31b60c082015260e00190565b6020808252825182820181905260009190848201906040850190845b81811015612cf157612cde838551612b89565b9284019260c09290920191600101612ccb565b50909695505050505050565b60006020825261271a6020830184612b04565b600060408252612d236040830185612b04565b8281036020840152612d358185612b04565b95945050505050565b60006020825261271a6020830184612b3e565b60208082526028908201527f455243313135353a204552433131353552656365697665722072656a656374656040820152676420746f6b656e7360c01b606082015260800190565b60208082526010908201526f14185d5cd8589b194e881c185d5cd95960821b604082015260600190565b60208082526025908201527f455243313135353a207472616e7366657220746f20746865207a65726f206164604082015264647265737360d81b606082015260800190565b6020808252602a908201527f455243313135353a20696e73756666696369656e742062616c616e636520666f60408201526939103a3930b739b332b960b11b606082015260800190565b6020808252818101527f4f776e61626c653a2063616c6c6572206973206e6f7420746865206f776e6572604082015260600190565b60208082526028908201527f455243313135353a2069647320616e6420616d6f756e7473206c656e677468206040820152670dad2e6dac2e8c6d60c31b606082015260800190565b60208082526021908201527f455243313135353a206d696e7420746f20746865207a65726f206164647265736040820152607360f81b606082015260800190565b6020808252601f908201527f5265656e7472616e637947756172643a207265656e7472616e742063616c6c00604082015260600190565b60c081016107818284612b89565b600067ffffffffffffffff821115612f6f57612f6f613080565b5060209081020190565b60008219821115612f8c57612f8c61306a565b500190565b600082612fac57634e487b7160e01b81526012600452602481fd5b500490565b6000816000190483118215151615612fcb57612fcb61306a565b500290565b600082821015612fe257612fe261306a565b500390565b600281046001821680612ffb57607f821691505b6020821081141561301c57634e487b7160e01b600052602260045260246000fd5b50919050565b601f8201601f1916810167ffffffffffffffff8111828210171561304857613048613080565b6040525050565b60006000198214156130635761306361306a565b5060010190565b634e487b7160e01b600052601160045260246000fd5b634e487b7160e01b600052604160045260246000fd5b600060033d11156109e657600481823e5160e01c90565b600060443d10156130bd576109e6565b6040516003193d81016004833e81513d67ffffffffffffffff81602484011181841117156130ef5750505050506109e6565b8285019150815181811115613109575050505050506109e6565b843d8701016020828501011115613125575050505050506109e6565b61313460208286010187613022565b509094505050505090565b6001600160e01b0319811681146119b957600080fdfea264697066735822122089f54491711b2543eab1b1f726b40148c07f6ff95d6472e68efe0b520479c62a64736f6c63430008020033",
  "immutableReferences": {},
  "source": "// SPDX-License-Identifier: MIT\npragma solidity ^0.8.2;\n\nimport \"@openzeppelin/contracts/token/ERC1155/ERC1155.sol\";\nimport \"@openzeppelin/contracts/access/Ownable.sol\";\nimport \"@openzeppelin/contracts/security/Pausable.sol\";\nimport \"@openzeppelin/contracts/security/ReentrancyGuard.sol\";\nimport \"@openzeppelin/contracts/token/ERC1155/extensions/ERC1155Supply.sol\";\nimport \"@openzeppelin/contracts/utils/Counters.sol\";\n\ncontract GoBlockchain is ERC1155, Ownable, Pausable, ReentrancyGuard, ERC1155Supply {\n    using Counters for Counters.Counter;\n    Counters.Counter private _tokenIdCounter;\n    Counters.Counter private _itemsSold;\n    Counters.Counter private _itemIds;\n\n    uint256 FEE_PERCENT;\n    \n    struct SellOffer {\n        uint256 itemId;\n        address seller;\n        uint256 price;\n        uint256 amount;\n        uint256 createTime;\n        uint256 IDtoken;\n    }\n    struct SoldItem {\n        uint256 itemSoldId;\n        address seller;\n        address buyer;\n        uint256 blockId;\n        uint256 price;\n        uint256 amount;\n        uint256 createTime;\n        uint256 IDtoken;\n    }\n\n    event ItemSold(uint256 tokenId, address indexed seller, uint256 value, uint256 amount, address indexed buyer, uint256 itemSoldId);\n    event NewSellOffer(uint256 tokenId, address indexed seller, uint256 value, uint256 amount);\n    event CancelSellOffer(uint256 tokenId, address indexed seller, uint256 value, uint256 amount);\n    event MoneySent(address indexed _beneficiary, uint _amount);\n    event MoneyReceived(address indexed _from, uint _amount);\n\n    mapping(uint256 => SellOffer) public activeSellOffers;\n    mapping(uint256 => SoldItem) public soldOffers;\n    mapping (uint256 => string) private _uris;\n\n    constructor(uint256 feePercent) ERC1155(\"\") {\n        FEE_PERCENT = feePercent;\n    }\n\n    function balance() public view returns (uint256){\n        return address(this).balance;\n    }\n\n    function withdrawFunds() public onlyOwner nonReentrant {\n        payable(msg.sender).transfer(address(this).balance);\n    }\n\n    function pause() public onlyOwner {\n        _pause();\n    }\n\n    function unpause() public onlyOwner {\n        _unpause();\n    }\n\n    function mint(address account, uint256 amount, string memory uri) public onlyOwner whenNotPaused {\n        uint256 tokenId = _tokenIdCounter.current();\n        _tokenIdCounter.increment();\n        _mint(account, tokenId, amount, \"\");\n        _uris[tokenId] = uri;\n        setApprovalForAll(address(this), true);\n    }\n\n    function mintBatch(address to, uint256[] memory ids, uint256[] memory amounts) public onlyOwner whenNotPaused {\n        _mintBatch(to, ids, amounts, \"\");\n    }\n\n    function makeSellOffer(uint256 tokenId, uint256 price, uint256 amount) external whenNotPaused nonReentrant tokenOwnerOnly(tokenId) {\n        require(price > 0, \"Price must be at least 1 wei\");\n        require(amount > 0, \"You can't sell 0 tokens\");\n        require(this.balanceOf(msg.sender, tokenId) >= amount, \"You don't have sufficient balance\");\n\n        uint256 itemId = _itemIds.current();\n        _itemIds.increment();\n        activeSellOffers[itemId] = SellOffer({itemId: itemId, seller : msg.sender, price : price, amount: amount, createTime: block.timestamp, IDtoken: tokenId});\n        this.safeTransferFrom(msg.sender, address(this), tokenId, amount, \"0x\");\n        emit NewSellOffer(tokenId, msg.sender, price, amount);\n    }\n\n    function buyToken(uint256 item) public payable whenNotPaused nonReentrant returns (SellOffer memory) {\n        SellOffer memory offer = activeSellOffers[item];\n        require(msg.value >= offer.price, \"You can't send less than the offer price!\");\n        emit MoneyReceived(msg.sender, msg.value);\n        uint256 fee_tax = (msg.value / 100) * FEE_PERCENT;\n        uint256 seller_ammount = msg.value - fee_tax;\n        this.safeTransferFrom(address(this), address(msg.sender), offer.IDtoken, offer.amount, \"0x\");\n        payable(offer.seller).transfer(seller_ammount);\n        emit MoneySent(address(offer.seller), seller_ammount);\n        uint256 itemSoldId = _itemsSold.current();\n        _itemsSold.increment();\n        soldOffers[itemSoldId] = SoldItem({\n            itemSoldId: itemSoldId,\n            seller: offer.seller,\n            buyer: msg.sender,\n            blockId: block.number,\n            price: offer.price,\n            amount: offer.amount,\n            createTime: block.timestamp,\n            IDtoken: offer.IDtoken\n        });\n        emit ItemSold(offer.IDtoken, offer.seller, offer.price, offer.amount, msg.sender, itemSoldId);\n        delete activeSellOffers[item];\n        return offer;\n    }\n    \n    function fetchMarketItems() public view returns (SellOffer[] memory) {\n        uint256 itemCount = _itemIds.current();\n        uint256 unsoldItemCount = _itemIds.current() - _itemsSold.current();\n        uint256 currentIndex = 0;\n\n        SellOffer[] memory items = new SellOffer[](unsoldItemCount);\n\n        for (uint256 i = 0; i < itemCount; i++) {\n            if (activeSellOffers[i].seller != address(0)) {\n                uint256 currentId = activeSellOffers[i].itemId;\n                SellOffer storage currentItem = activeSellOffers[currentId];\n                items[currentIndex] = currentItem;\n                currentIndex += 1;\n            }\n        }\n        return items;\n    }\n\n    function cancelSellOffer(uint256 tokenId) public whenNotPaused nonReentrant {\n        SellOffer memory offer = activeSellOffers[tokenId];\n        require(address(offer.seller) == address(msg.sender), \"You aren't the token seller\");\n        this.safeTransferFrom(address(this), address(msg.sender), offer.IDtoken, offer.amount, \"0x\");\n        emit CancelSellOffer(offer.IDtoken, offer.seller, offer.price, offer.amount);\n        delete activeSellOffers[tokenId];\n    }\n\n    function token_uri(uint256 tokenId) public view returns (string memory) {\n        return(_uris[tokenId]);\n    }\n\n    function _beforeTokenTransfer(address operator, address from, address to, uint256[] memory ids, uint256[] memory amounts, bytes memory data)\n        internal\n        whenNotPaused\n        override(ERC1155, ERC1155Supply)\n    {\n        super._beforeTokenTransfer(operator, from, to, ids, amounts, data);\n    }\n\n    modifier tokenOwnerOnly(uint256 tokenId) {\n        require(this.balanceOf(msg.sender, tokenId) != 0, \"You don't have any token\");\n        _;\n    }\n\n    function onERC1155Received(address, address, uint256, uint256, bytes memory) public virtual returns (bytes4) {\n        return this.onERC1155Received.selector;\n    }\n\n    function onERC1155BatchReceived(address, address, uint256[] memory, uint256[] memory, bytes memory) public virtual returns (bytes4) {\n        return this.onERC1155BatchReceived.selector;\n    }\n}",
  "sourcePath": "/home/machado/Documents/projetos/gotokens-wallet-nft/contracts/GoBlockchain.sol",
  "compiler": {
    "name": "solc",
    "version": "0.8.2+commit.661d1103.Emscripten.clang"
  },
  "schemaVersion": "3.4.3",
  "updatedAt": "2022-01-30T22:48:02.295Z",
  "networkType": "ethereum",
  "devdoc": {
    "kind": "dev",
    "methods": {
      "balanceOf(address,uint256)": {
        "details": "See {IERC1155-balanceOf}. Requirements: - `account` cannot be the zero address."
      },
      "balanceOfBatch(address[],uint256[])": {
        "details": "See {IERC1155-balanceOfBatch}. Requirements: - `accounts` and `ids` must have the same length."
      },
      "exists(uint256)": {
        "details": "Indicates whether any token exist with a given id, or not."
      },
      "isApprovedForAll(address,address)": {
        "details": "See {IERC1155-isApprovedForAll}."
      },
      "owner()": {
        "details": "Returns the address of the current owner."
      },
      "paused()": {
        "details": "Returns true if the contract is paused, and false otherwise."
      },
      "renounceOwnership()": {
        "details": "Leaves the contract without owner. It will not be possible to call `onlyOwner` functions anymore. Can only be called by the current owner. NOTE: Renouncing ownership will leave the contract without an owner, thereby removing any functionality that is only available to the owner."
      },
      "safeBatchTransferFrom(address,address,uint256[],uint256[],bytes)": {
        "details": "See {IERC1155-safeBatchTransferFrom}."
      },
      "safeTransferFrom(address,address,uint256,uint256,bytes)": {
        "details": "See {IERC1155-safeTransferFrom}."
      },
      "setApprovalForAll(address,bool)": {
        "details": "See {IERC1155-setApprovalForAll}."
      },
      "supportsInterface(bytes4)": {
        "details": "See {IERC165-supportsInterface}."
      },
      "totalSupply(uint256)": {
        "details": "Total amount of tokens in with a given id."
      },
      "transferOwnership(address)": {
        "details": "Transfers ownership of the contract to a new account (`newOwner`). Can only be called by the current owner."
      },
      "uri(uint256)": {
        "details": "See {IERC1155MetadataURI-uri}. This implementation returns the same URI for *all* token types. It relies on the token type ID substitution mechanism https://eips.ethereum.org/EIPS/eip-1155#metadata[defined in the EIP]. Clients calling this function must replace the `\\{id\\}` substring with the actual token type ID."
      }
    },
    "version": 1
  },
  "userdoc": {
    "kind": "user",
    "methods": {},
    "version": 1
  }
}